:100000000C94C7000C94E1040C9429050C94E600B0
:100010000C94E6000C9471050C94E6000C94E60038
:100020000C94E6000C94E6000C94E6000C94E600B8
:100030000C94E6000C94E6000C94E6000C94E600A8
:100040000C94E6000C94E6000C94E6000C94E60098
:100050000C94E6000C94E6000C94E6000C94E60088
:100060000C94E6000C94E6000C94E6000C94E60078
:100070000C94E6000C94E6000C94E6000C94E60068
:100080000C94E6000C94E6000C94E6006E616E00A1
:10009000696E660000407A10F35A00A0724E18098B
:1000A0000010A5D4E80000E87648170000E40B54DF
:1000B000020000CA9A3B000000E1F50500008096AE
:1000C0009800000040420F000000A08601000000E0
:1000D000102700000000E80300000000640000009A
:1000E00000000A00000000000100000000002C7663
:1000F000D888DC674F0823DFC1DFAE59E1B1B7967E
:10010000E5E3E453C63AE651997696E8E6C28426DA
:10011000EB898C9B62ED407C6FFCEFBC9C9F40F2B6
:10012000BAA56FA5F490055A2AF75C936B6CF96732
:100130006DC11BFCE0E40D47FEF520E6B500D0EDF7
:10014000902E0300943577050080841E080000205F
:100150004E0A000000C80C333333330F986E1283FD
:100160001141EF8D2114893BE65516CFFEE6DB18D1
:10017000D1844B381BF77C1D901DA4BBE424203296
:1001800084725E228100C9F124ECA1E53D2711248F
:100190001FBECFEFD0E1DEBFCDBF11E0A0E0B1E0E8
:1001A000ECE8F2E100E00BBF02C007900D92A43230
:1001B000B107D9F721E0A4E2B1E001C01D92A73355
:1001C000B207E1F70E94A6040C9444090C940000C5
:1001D0002F923F924F925F926F927F928F929F9257
:1001E000AF92BF92CF92DF92EF92FF920F931F9345
:1001F000CF93DF93CDB7DEB760970FB6F894DEBF2D
:100200000FBECDBF7C011B016A01FC011782168263
:10021000838181FF44C39E012F5F3F4F3901F70166
:100220009381F10193FD859193FF81911F018823B3
:1002300009F431C3853239F493FD859193FF81919F
:100240001F01853239F4B70190E00E947108560110
:100250006501E5CF10E0512C912CFFE1F915D8F0A4
:100260008B3279F038F4803279F08332A1F4F92DB1
:10027000F0612EC08D3261F0803369F4292D216048
:100280002DC0392D3260932E892D8460982E2AC07E
:10029000E92DE86015C097FC2DC020ED280F2A300D
:1002A00088F496FE06C03AE0139F200D1124122F09
:1002B00019C08AE0589E200D1124522EE92DE062CB
:1002C0009E2E10C08E3231F496FCE5C2F92DF064FA
:1002D0009F2E08C08C3621F4292D2068922E02C052
:1002E000883641F4F10193FD859193FF81911F01BF
:1002F0008111B3CF9BEB980F933020F4992D90612F
:10030000805E07C09BE9980F933008F066C1992D75
:100310009F7E96FF16E09F73992E853619F49064A0
:10032000992E08C0863621F4392F3068932E02C0EA
:100330001111115097FE07C01C3350F4442443940C
:10034000410E27E00BC0183038F027E017E005C059
:1003500027E09CE3492E02C0212F412C560184E066
:10036000A80EB11CF6016081718182819381042DF8
:10037000A3010E9483076C01F981FC87F0FF02C092
:10038000F3FF06C091FC06C092FE06C000E205C065
:100390000DE203C00BE201C000E08C858C7019F007
:1003A00001115AC29BC297FE10C04C0CFC85F4FF91
:1003B00004C08A81813309F44A94141474F528E046
:1003C000241578F588E0482E2CC096FC2AC0812F91
:1003D00090E08C159D059CF03CEFC3163FEFD306D3
:1003E00074F0892D8068982E0AC0E2E0F0E0EC0FEE
:1003F000FD1FE10FF11D8081803319F4115011119F
:10040000F4CF97FE0EC044244394410E812F90E018
:10041000C816D9062CF41C1904C04424439401C006
:1004200010E097FE06C01C141D0434F4C6010196AA
:1004300005C085E090E002C081E090E001110196E6
:10044000112331F0212F30E02F5F3F4F820F931F98
:10045000252D30E08217930714F4581A01C0512C4F
:10046000892D897049F4552039F0B70180E290E078
:100470000E9471085A94F7CF002329F0B701802F0A
:1004800090E00E94710893FC09C0552039F0B70133
:1004900080E390E00E9471085A94F7CF97FE4CC019
:1004A0004601D7FE02C0812C912CC60188199909FA
:1004B000F301E80FF91FFE87ED8796012419310932
:1004C000388B2F87012F10E01195019511093FEF0F
:1004D0008316930629F4B7018EE290E00E9471081A
:1004E000C814D9044CF08F8598898815990524F48F
:1004F000ED85FE85818101C080E3F1E08F1A9108CE
:100500002D853E852F5F3F4F3E872D8780169106B4
:100510002CF0B70190E00E947108D9CFC814D9041B
:1005200041F49A81963320F4953319F43C8534FFD5
:1005300081E3B70190E04EC08A81813319F09C8538
:100540009F7E9C87B70190E00E947108111105C041
:1005500094FC18C085E690E017C0B7018EE290E0E9
:100560000E9471081E5F82E001E0080FF301E80FAE
:10057000F11D8081B70190E00E947108802F011366
:10058000F3CFE6CF85E490E0B7010E947108D7FC75
:1005900006C0C114D10441F4EC85E4FF05C0D19438
:1005A000C194D1088DE201C08BE2B70190E00E94B6
:1005B000710880E32AE0C216D1042CF08F5FFAE0C4
:1005C000CF1AD108F7CFB70190E00E947108B701A8
:1005D000C601C0960E94710854C1833631F083373A
:1005E00079F0833509F056C020C0560132E0A30EE1
:1005F000B11CF6018081898301E010E0630112C023
:100600005601F2E0AF0EB11CF601C080D18096FE1B
:1006100003C0612F70E002C06FEF7FEFC6010E9440
:1006200066088C01F92DFF7714C0560122E0A20E56
:10063000B11CF601C080D18096FE03C0612F70E02E
:1006400002C06FEF7FEFC6010E945B088C01F92D9D
:10065000F0689F2EF3FD1AC0852D90E0081719074A
:10066000A8F4B70180E290E00E9471085A94F4CF98
:10067000F60197FC859197FE81916F01B70190E09B
:100680000E94710851105A94015011090115110569
:1006900079F7F7C0843611F0893661F5560197FE77
:1006A00009C024E0A20EB11CF60160817181828133
:1006B00093810AC0F2E0AF0EB11CF6016081718136
:1006C000072E000C880B990BF92DFF769F2E97FFB4
:1006D00009C090958095709561957F4F8F4F9F4F82
:1006E000F0689F2E2AE030E0A3010E94E608C82EA1
:1006F000C6183FC0092D853721F40F7E2AE030E06F
:100700001DC0097F8F3691F018F4883559F0C3C0A9
:10071000803719F0883711F0BEC0006104FF09C0AE
:10072000046007C094FE08C0066006C028E030E000
:1007300005C020E130E002C020E132E0560107FFB1
:1007400009C084E0A80EB11CF6016081718182812C
:10075000938108C0F2E0AF0EB11CF6016081718197
:1007600080E090E0A3010E94E608C82EC6180F772B
:10077000902E96FE0BC0092D0E7FC11650F494FEEC
:100780000AC092FC08C0092D0E7E05C0DC2C092D84
:1007900003C0DC2C01C0D12E04FF0DC0FE01EC0D06
:1007A000F11D8081803311F4097E09C002FF06C06B
:1007B000D394D39404C0802F867809F0D39403FD9A
:1007C00011C000FF06C01C2DD51480F4150D1D1995
:1007D0000DC0D51458F4B70180E290E00E94710872
:1007E000D394F7CFD51410F45D1801C0512C04FF39
:1007F00010C0B70180E390E00E94710802FF17C0AB
:1008000001FD03C088E790E002C088E590E0B701F1
:100810000CC0802F867859F001FF02C08BE201C026
:1008200080E207FD8DE2B70190E00E947108C116D9
:1008300038F4B70180E390E00E9471081150F7CFBF
:10084000CA94F301EC0DF11D8081B70190E00E9484
:100850007108C110F5CF15C0F4E0F51560F584E01E
:10086000581A93FE1FC0011127C02C8523FF2AC0F0
:100870000CE810E0392D3071932EF801849181112C
:1008800024C0552009F4E4CCB70180E290E00E9436
:1008900071085A94F6CFF7018681978126C08FEFB1
:1008A0009FEF23C0B70180E290E00E9471085A9444
:1008B0005110F8CFD8CF512CB701802F90E00E9473
:1008C0007108D3CF00E910E0D5CF91108052B70165
:1008D00090E00E9471080F5F1F4FCFCF23E02515D6
:1008E00010F483E0BDCF512CC0CF60960FB6F894C2
:1008F000DEBF0FBECDBFDF91CF911F910F91FF9053
:10090000EF90DF90CF90BF90AF909F908F907F90AF
:100910006F905F904F903F902F900895889882B38A
:10092000836082BB89B7836089BFEAE6F0E080819B
:100930008A60808382B18C6082B914981C9A89B7CE
:10094000806189BF8AB782608ABF089578940E94C7
:100950008E040E94F605179A1F9A04E011E0C1E187
:10096000D1E00E94230661E081E00E941806809198
:100970002401909125019F938F931F930F930E94C1
:10098000410661E082E00E941806809103018F9386
:10099000809102018F93DF93CF930E9441069FEFD6
:1009A0002FEB86E0915020408040E1F700C000002E
:1009B0008DB79EB708960FB6F8949EBF0FBE8DBF39
:1009C000D0CF1F920F920FB60F9211240BB60F9239
:1009D0002F933F934F935F936F937F938F939F9347
:1009E000AF93BF93EF93FF93809102019091030126
:1009F00001968B35910510F08AE590E09093030104
:100A000080930201609102017091030180E090E007
:100A10000E9488062DED35EA4EEF51E40E94EE0665
:100A20000E9459067093010160930001FF91EF91BC
:100A3000BF91AF919F918F917F916F915F914F91F6
:100A40003F912F910F900BBE0F900FBE0F901F90F4
:100A500018951F920F920FB60F9211240BB60F929A
:100A60002F933F934F935F936F937F938F939F93B6
:100A7000AF93BF93EF93FF93809102019091030195
:100A800001978E31910510F48EE190E0909303016F
:100A900080930201609102017091030180E090E077
:100AA0000E9488062DED35EA4EEF51E40E94EE06D5
:100AB0000E9459067093010160930001FF91EF912C
:100AC000BF91AF919F918F917F916F915F914F9166
:100AD0003F912F910F900BBE0F900FBE0F901F9064
:100AE00018951F920F920FB60F9211242F933F93D8
:100AF0008F939F9380E090E020910001309101015D
:100B00008217930730F422E02A95F1F700C001968E
:100B1000F3CF1B981A9A83E397E00197F1F71A989D
:100B20008CEC90E40197F1F700C000001B9A83E37E
:100B300097E00197F1F71B9880912401909125018E
:100B40000196909325018093240180912401909136
:100B500025018131974224F0109225011092240141
:100B60009F918F913F912F910F900FBE0F901F90EB
:100B700018958BB3806F8BBB8AB38F708ABBDA9A60
:100B8000DA9A29B3DA98DA9ADA9A99B3DA98207F5E
:100B9000892F82958F70822B08952BB32F70982FF9
:100BA000907F922B9BBBDA9ADA9830E1839FC00149
:100BB0001124822B8BBBDA9ADA9808958BBBDA9AD0
:100BC000DA980895CF93DF931F92CDB7DEB7D89808
:100BD000D99A0E94B9058983898187FDF8CFD99870
:100BE0008FEF8ABB0F90DF91CF9108958FEF8ABB73
:100BF0008ABBD898D998DA98DA9ADD9ADA980E945E
:100C0000E20588E20E94CD050E94E205D8988EE0B8
:100C10000E94CD050E94E205D89886E00E94CD058D
:100C20000C94E205D89882E00E94CD050C94E20570
:100C3000D89890E4899F600D1124862F815C0E94D2
:100C4000CD050C94E205D89881E00E94CD050C9466
:100C5000E205D89A0E94CD050C94E2050F931F93EC
:100C6000CF938C01C0E0F801EC0FF11D8081882347
:100C700021F00E942906CF5FF6CFCF911F910F91EF
:100C80000895CF93DF93CDB7DEB79E012B5F3F4F23
:100C9000F901419151919F0161E170E086E291E09B
:100CA0000E94AD0886E291E00E942E06DF91CF916E
:100CB00008950E94CD0688F09F5798F0B92F992784
:100CC000B751B0F0E1F0660F771F881F991F1AF037
:100CD000BA95C9F714C0B13091F00E94E706B1E0AF
:100CE00008950C94E706672F782F8827B85F39F0AE
:100CF000B93FCCF3869577956795B395D9F73EF4D0
:100D000090958095709561957F4F8F4F9F4F089577
:100D1000E89409C097FB3EF4909580957095619595
:100D20007F4F8F4F9F4F9923A9F0F92F96E9BB274B
:100D30009395F695879577956795B795F111F8CFC7
:100D4000FAF4BB0F11F460FF1BC06F5F7F4F8F4F32
:100D50009F4F16C0882311F096E911C0772321F028
:100D60009EE8872F762F05C0662371F096E8862FC0
:100D700070E060E02AF09A95660F771F881FDAF717
:100D8000880F9695879597F9089557FD9058440FC9
:100D9000551F59F05F3F71F04795880F97FB991FDA
:100DA00061F09F3F79F08795089512161306140697
:100DB000551FF2CF4695F1DF08C016161706180624
:100DC000991FF1CF86957105610508940895E894FF
:100DD000BB2766277727CB0197F908950E94010763
:100DE0000C9472070E94640738F00E946B0720F091
:100DF000952311F00C945B070C94610711240C945B
:100E0000E8060E94C50670F3959FC1F3950F50E068
:100E1000551F629FF001729FBB27F00DB11D639FAC
:100E2000AA27F00DB11DAA1F649F6627B00DA11D52
:100E3000661F829F2227B00DA11D621F739FB00DF8
:100E4000A11D621F839FA00D611D221F749F332768
:100E5000A00D611D231F849F600D211D822F762F01
:100E60006A2F11249F5750409AF0F1F088234AF0DE
:100E7000EE0FFF1FBB1F661F771F881F915050404A
:100E8000A9F79E3F510580F00C945B070C94E8068F
:100E90005F3FE4F3983ED4F3869577956795B795D1
:100EA000F795E7959F5FC1F7FE2B880F911D9695EB
:100EB000879597F9089597F99F6780E870E060E05B
:100EC00008959FEF80EC089500240A9416161706E3
:100ED00018060906089500240A941216130614062B
:100EE00005060895092E0394000C11F4882352F08E
:100EF000BB0F40F4BF2B11F460FF04C06F5F7F4F46
:100F00008F4F9F4F0895283008F027E03327DA01EC
:100F1000990F311D87FD916000966105710539F4C7
:100F200032602E5F3D9330E32A95E1F708959F3FAD
:100F300030F080387105610509F03C5F3C5F3D93FE
:100F4000913008F08068911DDF93CF931F930F932A
:100F5000FF92EF92192F987F9695E92F9695969587
:100F6000E90FFF27E251FF4F99273327EE24FF2493
:100F7000A701E70105900894079428F4360FE71EAF
:100F8000F81E491F511D660F771F881F991F069471
:100F9000A1F70590079428F4E70EF81E491F561F85
:100FA000C11D770F881F991F661F0694A1F7059032
:100FB000079428F4F80E491F561FC71FD11D880F2C
:100FC000991F661F771F0694A1F70590079420F4D8
:100FD000490F561FC71FD81F990F661F771F881FFD
:100FE0000694A9F784911095177041F0D695C7958E
:100FF00057954795F794E7941A95C1F7E4E9F0E01F
:1010000068941590159135916591959105907FE2C1
:101010007395E118F10A430B560BC90BD009C0F7C1
:10102000E10CF11E431F561FC91FD01D7EF4703303
:1010300011F48A95E6CFE894015030F0080F0AF4D5
:101040000027021708F4202F2395022F7A3328F067
:1010500079E37D932A95E9F710C07D932A9589F667
:10106000069497956795379517951794E118F10AA7
:10107000430B560BC90BD00998F023957E917395BD
:101080007A3308F070E37C932013B8F77E91706197
:101090007D9330F0839571E37D9370E32A95E1F7BA
:1010A0001124EF90FF900F911F91CF91DF9199271D
:1010B00087FD90950895FC010590615070400110E6
:1010C000D8F7809590958E0F9F1F0895FC01615071
:1010D000704001900110D8F7809590958E0F9F1F5A
:1010E00008950F931F93CF93DF93FB01238121FD7D
:1010F00003C08FEF9FEF2CC022FF16C0468157819F
:10110000248135814217530744F4A081B1819D01A8
:101110002F5F3F4F318320838C93268137812F5F50
:101120003F4F3783268314C08B01EC01FB01008401
:10113000F185E02D0995892BE1F6D80116968D9160
:101140009C911797019617969C938E931697CE01B4
:10115000DF91CF911F910F9108950F931F93CF931C
:10116000DF93CDB7DEB72E970FB6F894DEBF0FBE74
:10117000CDBF8C01FA0186E08C831A83098377FF47
:1011800002C060E070E8CB0101979E838D83A901C6
:10119000BF01CE0101960E94E8004D815E8157FD9E
:1011A0000AC02F813885421753070CF49A01F801C1
:1011B000E20FF31F10822E960FB6F894DEBF0FBE1B
:1011C000CDBFDF91CF911F910F910895FA01AA270A
:1011D000283051F1203181F1E8946F936E7F6E5F7A
:1011E0007F4F8F4F9F4FAF4FB1E03ED0B4E03CD028
:1011F000670F781F891F9A1FA11D680F791F8A1F0B
:10120000911DA11D6A0F711D811D911DA11D20D071
:1012100009F468943F912AE0269F11243019305D2B
:101220003193DEF6CF010895462F4770405D41931C
:10123000B3E00FD0C9F7F6CF462F4F70405D4A3369
:1012400018F0495D31FD4052419302D0A9F7EACF31
:10125000B4E0A6959795879577956795BA95C9F760
:1012600000976105710508959B01AC010A2E069453
:101270005795479537952795BA95C9F7620F731F0C
:0C128000841F951FA01D0895F894FFCF57
:10128C0040061E00436F756E74494E543A20256417
:10129C0000416E676C654B69636B3A20257500DD08
:0412AC00A5FE41005A
:00000001FF
